{
  "address": "0xC2800B015B88497BA30648b51a4CAA63BBaC12D8",
  "abi": [
    {
      "inputs": [
        {
          "internalType": "address",
          "name": "_disputeResolver",
          "type": "address"
        }
      ],
      "stateMutability": "nonpayable",
      "type": "constructor"
    },
    {
      "anonymous": false,
      "inputs": [
        {
          "indexed": true,
          "internalType": "uint256",
          "name": "jobId",
          "type": "uint256"
        },
        {
          "indexed": true,
          "internalType": "address",
          "name": "contractor",
          "type": "address"
        }
      ],
      "name": "JobApplied",
      "type": "event"
    },
    {
      "anonymous": false,
      "inputs": [
        {
          "indexed": true,
          "internalType": "uint256",
          "name": "jobId",
          "type": "uint256"
        }
      ],
      "name": "JobCancelled",
      "type": "event"
    },
    {
      "anonymous": false,
      "inputs": [
        {
          "indexed": true,
          "internalType": "uint256",
          "name": "jobId",
          "type": "uint256"
        }
      ],
      "name": "JobCompleted",
      "type": "event"
    },
    {
      "anonymous": false,
      "inputs": [
        {
          "indexed": true,
          "internalType": "uint256",
          "name": "jobId",
          "type": "uint256"
        },
        {
          "indexed": true,
          "internalType": "address",
          "name": "client",
          "type": "address"
        },
        {
          "indexed": false,
          "internalType": "uint256",
          "name": "depositAmount",
          "type": "uint256"
        },
        {
          "indexed": false,
          "internalType": "address",
          "name": "token",
          "type": "address"
        },
        {
          "indexed": false,
          "internalType": "string",
          "name": "title",
          "type": "string"
        },
        {
          "indexed": false,
          "internalType": "string",
          "name": "description",
          "type": "string"
        },
        {
          "indexed": false,
          "internalType": "uint256",
          "name": "deadline",
          "type": "uint256"
        },
        {
          "indexed": false,
          "internalType": "string",
          "name": "jobURI",
          "type": "string"
        }
      ],
      "name": "JobCreated",
      "type": "event"
    },
    {
      "anonymous": false,
      "inputs": [
        {
          "indexed": true,
          "internalType": "uint256",
          "name": "jobId",
          "type": "uint256"
        }
      ],
      "name": "JobDeadlineCancelled",
      "type": "event"
    },
    {
      "anonymous": false,
      "inputs": [
        {
          "indexed": true,
          "internalType": "uint256",
          "name": "jobId",
          "type": "uint256"
        }
      ],
      "name": "JobDelivered",
      "type": "event"
    },
    {
      "anonymous": false,
      "inputs": [
        {
          "indexed": true,
          "internalType": "uint256",
          "name": "jobId",
          "type": "uint256"
        }
      ],
      "name": "JobDisputed",
      "type": "event"
    },
    {
      "anonymous": false,
      "inputs": [
        {
          "indexed": true,
          "internalType": "uint256",
          "name": "jobId",
          "type": "uint256"
        },
        {
          "indexed": false,
          "internalType": "bool",
          "name": "disputeUpheld",
          "type": "bool"
        }
      ],
      "name": "JobResolved",
      "type": "event"
    },
    {
      "anonymous": false,
      "inputs": [
        {
          "indexed": true,
          "internalType": "uint256",
          "name": "jobId",
          "type": "uint256"
        },
        {
          "indexed": true,
          "internalType": "address",
          "name": "contractor",
          "type": "address"
        }
      ],
      "name": "JobStarted",
      "type": "event"
    },
    {
      "inputs": [],
      "name": "AUTO_APPROVE_PERIOD",
      "outputs": [
        {
          "internalType": "uint256",
          "name": "",
          "type": "uint256"
        }
      ],
      "stateMutability": "view",
      "type": "function"
    },
    {
      "inputs": [
        {
          "internalType": "uint256",
          "name": "_jobId",
          "type": "uint256"
        }
      ],
      "name": "applyForJob",
      "outputs": [],
      "stateMutability": "nonpayable",
      "type": "function"
    },
    {
      "inputs": [
        {
          "internalType": "uint256",
          "name": "_jobId",
          "type": "uint256"
        }
      ],
      "name": "approveAndComplete",
      "outputs": [],
      "stateMutability": "nonpayable",
      "type": "function"
    },
    {
      "inputs": [
        {
          "internalType": "uint256",
          "name": "_jobId",
          "type": "uint256"
        }
      ],
      "name": "autoApproveIfTimeoutPassed",
      "outputs": [],
      "stateMutability": "nonpayable",
      "type": "function"
    },
    {
      "inputs": [
        {
          "internalType": "uint256",
          "name": "_jobId",
          "type": "uint256"
        }
      ],
      "name": "autoCancelIfDeadlinePassed",
      "outputs": [],
      "stateMutability": "nonpayable",
      "type": "function"
    },
    {
      "inputs": [
        {
          "internalType": "uint256",
          "name": "_jobId",
          "type": "uint256"
        }
      ],
      "name": "cancelJob",
      "outputs": [],
      "stateMutability": "nonpayable",
      "type": "function"
    },
    {
      "inputs": [
        {
          "internalType": "address",
          "name": "_tokenAddress",
          "type": "address"
        },
        {
          "internalType": "uint256",
          "name": "_depositAmount",
          "type": "uint256"
        },
        {
          "internalType": "string",
          "name": "_title",
          "type": "string"
        },
        {
          "internalType": "string",
          "name": "_description",
          "type": "string"
        },
        {
          "internalType": "uint256",
          "name": "_deadline",
          "type": "uint256"
        },
        {
          "internalType": "string",
          "name": "_jobURI",
          "type": "string"
        }
      ],
      "name": "createJob",
      "outputs": [
        {
          "internalType": "uint256",
          "name": "jobId",
          "type": "uint256"
        }
      ],
      "stateMutability": "nonpayable",
      "type": "function"
    },
    {
      "inputs": [
        {
          "internalType": "uint256",
          "name": "_jobId",
          "type": "uint256"
        }
      ],
      "name": "deliverWork",
      "outputs": [],
      "stateMutability": "nonpayable",
      "type": "function"
    },
    {
      "inputs": [],
      "name": "disputeResolver",
      "outputs": [
        {
          "internalType": "address",
          "name": "",
          "type": "address"
        }
      ],
      "stateMutability": "view",
      "type": "function"
    },
    {
      "inputs": [
        {
          "internalType": "uint256",
          "name": "_jobId",
          "type": "uint256"
        }
      ],
      "name": "getJob",
      "outputs": [
        {
          "internalType": "address",
          "name": "client_",
          "type": "address"
        },
        {
          "internalType": "address",
          "name": "contractor_",
          "type": "address"
        },
        {
          "internalType": "uint256",
          "name": "depositAmount_",
          "type": "uint256"
        },
        {
          "internalType": "address",
          "name": "tokenAddress_",
          "type": "address"
        },
        {
          "internalType": "enum WorkAgreement.JobStatus",
          "name": "status_",
          "type": "uint8"
        },
        {
          "internalType": "string",
          "name": "title_",
          "type": "string"
        },
        {
          "internalType": "string",
          "name": "description_",
          "type": "string"
        },
        {
          "internalType": "uint256",
          "name": "deadline_",
          "type": "uint256"
        },
        {
          "internalType": "string",
          "name": "jobURI_",
          "type": "string"
        },
        {
          "internalType": "uint256",
          "name": "deliveredAt_",
          "type": "uint256"
        }
      ],
      "stateMutability": "view",
      "type": "function"
    },
    {
      "inputs": [],
      "name": "jobCounter",
      "outputs": [
        {
          "internalType": "uint256",
          "name": "",
          "type": "uint256"
        }
      ],
      "stateMutability": "view",
      "type": "function"
    },
    {
      "inputs": [
        {
          "internalType": "uint256",
          "name": "",
          "type": "uint256"
        }
      ],
      "name": "jobs",
      "outputs": [
        {
          "internalType": "address",
          "name": "client",
          "type": "address"
        },
        {
          "internalType": "address",
          "name": "contractor",
          "type": "address"
        },
        {
          "internalType": "uint256",
          "name": "depositAmount",
          "type": "uint256"
        },
        {
          "internalType": "address",
          "name": "tokenAddress",
          "type": "address"
        },
        {
          "internalType": "enum WorkAgreement.JobStatus",
          "name": "status",
          "type": "uint8"
        },
        {
          "internalType": "string",
          "name": "title",
          "type": "string"
        },
        {
          "internalType": "string",
          "name": "description",
          "type": "string"
        },
        {
          "internalType": "uint256",
          "name": "deadline",
          "type": "uint256"
        },
        {
          "internalType": "string",
          "name": "jobURI",
          "type": "string"
        },
        {
          "internalType": "uint256",
          "name": "deliveredTimestamp",
          "type": "uint256"
        }
      ],
      "stateMutability": "view",
      "type": "function"
    },
    {
      "inputs": [
        {
          "internalType": "uint256",
          "name": "_jobId",
          "type": "uint256"
        }
      ],
      "name": "raiseDispute",
      "outputs": [],
      "stateMutability": "nonpayable",
      "type": "function"
    },
    {
      "inputs": [
        {
          "internalType": "uint256",
          "name": "_jobId",
          "type": "uint256"
        },
        {
          "internalType": "bool",
          "name": "_disputeUpheld",
          "type": "bool"
        }
      ],
      "name": "resolveDispute",
      "outputs": [],
      "stateMutability": "nonpayable",
      "type": "function"
    },
    {
      "inputs": [
        {
          "internalType": "address",
          "name": "_resolver",
          "type": "address"
        }
      ],
      "name": "setDisputeResolver",
      "outputs": [],
      "stateMutability": "nonpayable",
      "type": "function"
    },
    {
      "inputs": [
        {
          "internalType": "uint256",
          "name": "_jobId",
          "type": "uint256"
        },
        {
          "internalType": "address",
          "name": "_selectedContractor",
          "type": "address"
        }
      ],
      "name": "startContract",
      "outputs": [],
      "stateMutability": "nonpayable",
      "type": "function"
    },
    {
      "inputs": [
        {
          "internalType": "uint256",
          "name": "_jobId",
          "type": "uint256"
        }
      ],
      "name": "withdrawPayment",
      "outputs": [],
      "stateMutability": "nonpayable",
      "type": "function"
    }
  ],
  "transactionHash": "0xac7e04f910119d604db814f1034adf8ee133f2a78bdfe1c130d1f966ff508879",
  "args": [
    "0x0fC909156De7faa008a844d699Ca5b8d67E2193E"
  ],
  "numDeployments": 1,
  "solcInputHash": "fc1e4b86ca848df3700a06f663ad77db",
  "bytecode": "0x608060405234801561001057600080fd5b50604051620021773803806200217783398101604081905261003191610056565b600280546001600160a01b0319166001600160a01b0392909216919091179055610086565b60006020828403121561006857600080fd5b81516001600160a01b038116811461007f57600080fd5b9392505050565b6120e180620000966000396000f3fe608060405234801561001057600080fd5b506004361061010b5760003560e01c8063b91bda37116100a2578063dbd3cd6211610071578063dbd3cd621461022d578063df937e0514610240578063e0c94ae514610253578063f5a3f4af14610266578063fe31e8591461029157600080fd5b8063b91bda37146101e1578063bf22c457146101f4578063cfb026bc14610207578063da2f28e81461021a57600080fd5b80636ce279a1116100de5780636ce279a1146101815780637b7a4dfe1461018b578063924e63f61461019e578063a5c1674e146101ce57600080fd5b8063180aedf3146101105780631dffa3dc1461014257806334b25ee21461015757806350355d761461016a575b600080fd5b61012361011e366004611af1565b6102a4565b6040516101399a99989796959493929190611b66565b60405180910390f35b610155610150366004611af1565b6104a2565b005b610155610165366004611c1d565b61067a565b61017360005481565b604051908152602001610139565b61017362093a8081565b610155610199366004611af1565b61097f565b6101556101ac366004611c69565b600280546001600160a01b0319166001600160a01b0392909216919091179055565b6101556101dc366004611af1565b610b68565b6101556101ef366004611af1565b610ce3565b610123610202366004611af1565b610de7565b610155610215366004611af1565b61101e565b610173610228366004611cd4565b611186565b61015561023b366004611af1565b61153a565b61015561024e366004611af1565b6116f1565b610155610261366004611af1565b61182b565b600254610279906001600160a01b031681565b6040516001600160a01b039091168152602001610139565b61015561029f366004611d94565b611967565b6001602081905260009182526040909120805491810154600282015460038301546004840180546001600160a01b0396871696948516959394831693600160a01b90930460ff169291906102f790611dc0565b80601f016020809104026020016040519081016040528092919081815260200182805461032390611dc0565b80156103705780601f1061034557610100808354040283529160200191610370565b820191906000526020600020905b81548152906001019060200180831161035357829003601f168201915b50505050509080600501805461038590611dc0565b80601f01602080910402602001604051908101604052809291908181526020018280546103b190611dc0565b80156103fe5780601f106103d3576101008083540402835291602001916103fe565b820191906000526020600020905b8154815290600101906020018083116103e157829003601f168201915b50505050509080600601549080600701805461041990611dc0565b80601f016020809104026020016040519081016040528092919081815260200182805461044590611dc0565b80156104925780601f1061046757610100808354040283529160200191610492565b820191906000526020600020905b81548152906001019060200180831161047557829003601f168201915b505050505090806008015490508a565b8080158015906104b457506000548111155b6104d95760405162461bcd60e51b81526004016104d090611dfa565b60405180910390fd5b60008281526001602052604090205482906001600160a01b031633146105115760405162461bcd60e51b81526004016104d090611e26565b82600080600083815260016020526040902060030154600160a01b900460ff16600681111561054257610542611b0a565b1461055f5760405162461bcd60e51b81526004016104d090611dfa565b600085815260016020526040808220600381018054600360a11b60ff60a01b1982161790915560028201805490859055925163a9059cbb60e01b81523360048201526024810184905291936001600160a01b039091169291839063a9059cbb906044016020604051808303816000875af11580156105e1573d6000803e3d6000fd5b505050506040513d601f19601f820116820180604052508101906106059190611e6c565b9050806106445760405162461bcd60e51b815260206004820152600d60248201526c1499599d5b990819985a5b1959609a1b60448201526064016104d0565b60405189907f58243f872c550ad02802199ade99eb4250f6bb19e9abbf2d3de7b969c0eb5e4f90600090a2505050505050505050565b81801580159061068c57506000548111155b6106a85760405162461bcd60e51b81526004016104d090611dfa565b6002546001600160a01b031633146107165760405162461bcd60e51b815260206004820152602b60248201527f4f6e6c79207468652061737369676e65642064697370757465207265736f6c7660448201526a195c8818d85b8818d85b1b60aa1b60648201526084016104d0565b82600480600083815260016020526040902060030154600160a01b900460ff16600681111561074757610747611b0a565b146107645760405162461bcd60e51b81526004016104d090611dfa565b6000858152600160205260408120600381018054600560a01b60ff60a01b1982161790915560028201805493905590916001600160a01b0390911690861561086d57825460405163a9059cbb60e01b81526001600160a01b0391821660048201526024810183905260009184169063a9059cbb906044016020604051808303816000875af11580156107fa573d6000803e3d6000fd5b505050506040513d601f19601f8201168201806040525081019061081e9190611e6c565b9050806108675760405162461bcd60e51b81526020600482015260176024820152761499599d5b99081d1bc818db1a595b9d0819985a5b1959604a1b60448201526064016104d0565b50610939565b600183015460405163a9059cbb60e01b81526001600160a01b0391821660048201526024810183905260009184169063a9059cbb906044016020604051808303816000875af11580156108c4573d6000803e3d6000fd5b505050506040513d601f19601f820116820180604052508101906108e89190611e6c565b9050806109375760405162461bcd60e51b815260206004820152601c60248201527f5061796d656e7420746f20636f6e74726163746f72206661696c65640000000060448201526064016104d0565b505b877f4e16e40bdd80579534f4adbdfeb6c46b915766a6eaef01bf075de557a61529748860405161096d911515815260200190565b60405180910390a25050505050505050565b80801580159061099157506000548111155b6109ad5760405162461bcd60e51b81526004016104d090611dfa565b6000828152600160208190526040909120906003820154600160a01b900460ff1660068111156109df576109df611b0a565b146109fc5760405162461bcd60e51b81526004016104d090611dfa565b80600601544211610a4f5760405162461bcd60e51b815260206004820152601760248201527f446561646c696e65206e6f74207061737365642079657400000000000000000060448201526064016104d0565b600381018054600360a11b60ff60a01b19821617909155600282018054600091829055835460405163a9059cbb60e01b81526001600160a01b03918216600482015260248101839052931692909190839063a9059cbb906044016020604051808303816000875af1158015610ac8573d6000803e3d6000fd5b505050506040513d601f19601f82011682018060405250810190610aec9190611e6c565b905080610b355760405162461bcd60e51b81526020600482015260176024820152761499599d5b99081d1bc818db1a595b9d0819985a5b1959604a1b60448201526064016104d0565b60405186907f7c8b76496423bbaed3013fd6b8b50a8ee61dd3d660fb813f1ae069a6777a3f3f90600090a2505050505050565b808015801590610b7a57506000548111155b610b965760405162461bcd60e51b81526004016104d090611dfa565b600082815260016020526040902080546001600160a01b0316331480610bc8575060018101546001600160a01b031633145b610c055760405162461bcd60e51b815260206004820152600e60248201526d139bdd08185d5d1a1bdc9a5e995960921b60448201526064016104d0565b60016003820154600160a01b900460ff166006811115610c2757610c27611b0a565b1480610c52575060026003820154600160a01b900460ff166006811115610c5057610c50611b0a565b145b610c9e5760405162461bcd60e51b815260206004820152601d60248201527f43616e6e6f74206469737075746520696e20746869732073746174757300000060448201526064016104d0565b60038101805460ff60a01b1916600160a21b17905560405183907fb1dee78cef8c6887046d91c59e17f84fbc012c9f7efa49a10cce97e13cc94bf490600090a2505050565b808015801590610cf557506000548111155b610d115760405162461bcd60e51b81526004016104d090611dfa565b60008281526001602052604090205482906001600160a01b03163314610d495760405162461bcd60e51b81526004016104d090611e26565b82600280600083815260016020526040902060030154600160a01b900460ff166006811115610d7a57610d7a611b0a565b14610d975760405162461bcd60e51b81526004016104d090611dfa565b600085815260016020526040808220600301805460ff60a01b1916600360a01b1790555186917f02244c8529cb95e213ee542e76e7776342b3dabd10203d01472bbf4441be892991a25050505050565b600081815260016020819052604082208054918101546002820154600383015460068401546008850154600486018054899889988998899860609889988b988a988a9896976001600160a01b03908116979681169690851694600160a01b900460ff1693919260058a01929160078b0191908590610e6490611dc0565b80601f0160208091040260200160405190810160405280929190818152602001828054610e9090611dc0565b8015610edd5780601f10610eb257610100808354040283529160200191610edd565b820191906000526020600020905b815481529060010190602001808311610ec057829003601f168201915b50505050509450838054610ef090611dc0565b80601f0160208091040260200160405190810160405280929190818152602001828054610f1c90611dc0565b8015610f695780601f10610f3e57610100808354040283529160200191610f69565b820191906000526020600020905b815481529060010190602001808311610f4c57829003601f168201915b50505050509350818054610f7c90611dc0565b80601f0160208091040260200160405190810160405280929190818152602001828054610fa890611dc0565b8015610ff55780601f10610fca57610100808354040283529160200191610ff5565b820191906000526020600020905b815481529060010190602001808311610fd857829003601f168201915b505050505091509a509a509a509a509a509a509a509a509a509a50509193959799509193959799565b80801580159061103057506000548111155b61104c5760405162461bcd60e51b81526004016104d090611dfa565b6000828152600160208190526040909120015482906001600160a01b031633146110885760405162461bcd60e51b81526004016104d090611e89565b82600180600083815260016020526040902060030154600160a01b900460ff1660068111156110b9576110b9611b0a565b146110d65760405162461bcd60e51b81526004016104d090611dfa565b600085815260016020526040902060068101544211156111385760405162461bcd60e51b815260206004820152601f60248201527f446561646c696e65207061737365642c2063616e6e6f742064656c697665720060448201526064016104d0565b60038101805460ff60a01b1916600160a11b17905542600882015560405186907f78d09dd35494148e1723f9a05c94ccc36be992f419de21105a9c22140e1d20cc90600090a2505050505050565b60008089116111d75760405162461bcd60e51b815260206004820152601e60248201527f4465706f736974206d7573742062652067726561746572207468616e2030000060448201526064016104d0565b6001600160a01b038a166112255760405162461bcd60e51b8152602060048201526015602482015274496e76616c696420746f6b656e206164647265737360581b60448201526064016104d0565b6040516323b872dd60e01b8152336004820152306024820152604481018a90528a906000906001600160a01b038316906323b872dd906064016020604051808303816000875af115801561127d573d6000803e3d6000fd5b505050506040513d601f19601f820116820180604052508101906112a19190611e6c565b9050806112e85760405162461bcd60e51b8152602060048201526015602482015274151bdad95b881d1c985b9cd9995c8819985a5b1959605a1b60448201526064016104d0565b6000805490806112f783611ee9565b9091555050600080546040805161014081018252338152602081018490529081018e90526001600160a01b038f16606082015290945090608082019081526020018b8b8080601f016020809104026020016040519081016040528093929190818152602001838380828437600092019190915250505090825250604080516020601f8c018190048102820181019092528a815291810191908b908b9081908401838280828437600092019190915250505090825250602080820189905260408051601f89018390048302810183018252888152920191908890889081908401838280828437600092018290525093855250505060209182018190528581526001808352604091829020845181546001600160a01b03199081166001600160a01b039283161783559486015192820180548616938216939093179092559184015160028301556060840151600383018054948516919092169081178255608085015192936001600160a81b03191617600160a01b83600681111561147c5761147c611b0a565b021790555060a082015160048201906114959082611f69565b5060c082015160058201906114aa9082611f69565b5060e0820151600682015561010082015160078201906114ca9082611f69565b506101208201518160080155905050336001600160a01b0316837ff21ce1898476e328503f1266c1b8e085cf3f2e6155131cde224e405c5dcc9e848d8f8e8e8e8e8e8e8e60405161152399989796959493929190612052565b60405180910390a350509998505050505050505050565b80801580159061154c57506000548111155b6115685760405162461bcd60e51b81526004016104d090611dfa565b6000828152600160208190526040909120015482906001600160a01b031633146115a45760405162461bcd60e51b81526004016104d090611e89565b82600380600083815260016020526040902060030154600160a01b900460ff1660068111156115d5576115d5611b0a565b146115f25760405162461bcd60e51b81526004016104d090611dfa565b60008581526001602052604080822060028101805490849055600382018054600560a01b60ff60a01b19821617909155925163a9059cbb60e01b815233600482015260248101829052919390926001600160a01b031691829063a9059cbb906044016020604051808303816000875af1158015611673573d6000803e3d6000fd5b505050506040513d601f19601f820116820180604052508101906116979190611e6c565b9050806116e65760405162461bcd60e51b815260206004820152601760248201527f5061796d656e74207472616e73666572206661696c656400000000000000000060448201526064016104d0565b505050505050505050565b80801580159061170357506000548111155b61171f5760405162461bcd60e51b81526004016104d090611dfa565b81600280600083815260016020526040902060030154600160a01b900460ff16600681111561175057611750611b0a565b1461176d5760405162461bcd60e51b81526004016104d090611dfa565b60008481526001602052604090206008015461178d9062093a80906120bb565b4210156117dc5760405162461bcd60e51b815260206004820152601f60248201527f4175746f2d617070726f76616c20706572696f64206e6f74207061737365640060448201526064016104d0565b600084815260016020526040808220600301805460ff60a01b1916600360a01b1790555185917f02244c8529cb95e213ee542e76e7776342b3dabd10203d01472bbf4441be892991a250505050565b80801580159061183d57506000548111155b6118595760405162461bcd60e51b81526004016104d090611dfa565b81600080600083815260016020526040902060030154600160a01b900460ff16600681111561188a5761188a611b0a565b146118a75760405162461bcd60e51b81526004016104d090611dfa565b600084815260016020819052604090912001546001600160a01b0316156119105760405162461bcd60e51b815260206004820152601b60248201527f436f6e74726163746f7220616c72656164792061737369676e6564000000000060448201526064016104d0565b600084815260016020819052604080832090910180546001600160a01b031916339081179091559051909186917fffa837d183240a5f25cbd643a8eade702c0c9c3e186c59c7d929e4f1a3438d869190a350505050565b81801580159061197957506000548111155b6119955760405162461bcd60e51b81526004016104d090611dfa565b60008381526001602052604090205483906001600160a01b031633146119cd5760405162461bcd60e51b81526004016104d090611e26565b83600080600083815260016020526040902060030154600160a01b900460ff1660068111156119fe576119fe611b0a565b14611a1b5760405162461bcd60e51b81526004016104d090611dfa565b600086815260016020819052604090912001546001600160a01b03868116911614611a945760405162461bcd60e51b8152602060048201526024808201527f4e6f74206d61746368656420776974682073656c656374656420636f6e74726160448201526331ba37b960e11b60648201526084016104d0565b600086815260016020526040808220600301805460ff60a01b1916600160a01b179055516001600160a01b0387169188917f4b73dcf03afab0676163497ed70ae70f8bbeb0f3aea82639428412368171f8ba9190a3505050505050565b600060208284031215611b0357600080fd5b5035919050565b634e487b7160e01b600052602160045260246000fd5b6000815180845260005b81811015611b4657602081850181015186830182015201611b2a565b506000602082860101526020601f19601f83011685010191505092915050565b6001600160a01b038b811682528a81166020830152604082018a905288166060820152600061014060078910611bac57634e487b7160e01b600052602160045260246000fd5b8860808401528060a0840152611bc481840189611b20565b905082810360c0840152611bd88188611b20565b90508560e0840152828103610100840152611bf38186611b20565b915050826101208301529b9a5050505050505050505050565b8015158114611c1a57600080fd5b50565b60008060408385031215611c3057600080fd5b823591506020830135611c4281611c0c565b809150509250929050565b80356001600160a01b0381168114611c6457600080fd5b919050565b600060208284031215611c7b57600080fd5b611c8482611c4d565b9392505050565b60008083601f840112611c9d57600080fd5b50813567ffffffffffffffff811115611cb557600080fd5b602083019150836020828501011115611ccd57600080fd5b9250929050565b600080600080600080600080600060c08a8c031215611cf257600080fd5b611cfb8a611c4d565b985060208a0135975060408a013567ffffffffffffffff80821115611d1f57600080fd5b611d2b8d838e01611c8b565b909950975060608c0135915080821115611d4457600080fd5b611d508d838e01611c8b565b909750955060808c0135945060a08c0135915080821115611d7057600080fd5b50611d7d8c828d01611c8b565b915080935050809150509295985092959850929598565b60008060408385031215611da757600080fd5b82359150611db760208401611c4d565b90509250929050565b600181811c90821680611dd457607f821691505b602082108103611df457634e487b7160e01b600052602260045260246000fd5b50919050565b602080825260129082015271496e76616c6964206a6f622073746174757360701b604082015260600190565b60208082526026908201527f4f6e6c792074686520636c69656e742063616e2063616c6c20746869732066756040820152653731ba34b7b760d11b606082015260800190565b600060208284031215611e7e57600080fd5b8151611c8481611c0c565b6020808252602a908201527f4f6e6c792074686520636f6e74726163746f722063616e2063616c6c207468696040820152693990333ab731ba34b7b760b11b606082015260800190565b634e487b7160e01b600052601160045260246000fd5b600060018201611efb57611efb611ed3565b5060010190565b634e487b7160e01b600052604160045260246000fd5b601f821115611f64576000816000526020600020601f850160051c81016020861015611f415750805b601f850160051c820191505b81811015611f6057828155600101611f4d565b5050505b505050565b815167ffffffffffffffff811115611f8357611f83611f02565b611f9781611f918454611dc0565b84611f18565b602080601f831160018114611fcc5760008415611fb45750858301515b600019600386901b1c1916600185901b178555611f60565b600085815260208120601f198616915b82811015611ffb57888601518255948401946001909101908401611fdc565b50858210156120195787850151600019600388901b60f8161c191681555b5050505050600190811b01905550565b81835281816020850137506000828201602090810191909152601f909101601f19169091010190565b8981526001600160a01b038916602082015260c06040820181905260009061207d908301898b612029565b828103606084015261209081888a612029565b905085608084015282810360a08401526120ab818587612029565b9c9b505050505050505050505050565b808201808211156120ce576120ce611ed3565b9291505056fea164736f6c6343000817000a",
  "devdoc": {
    "kind": "dev",
    "methods": {
      "autoCancelIfDeadlinePassed(uint256)": {
        "details": "clientcontractor"
      },
      "deliverWork(uint256)": {
        "details": "revert"
      }
    },
    "version": 1
  },
  "userdoc": {
    "kind": "user",
    "methods": {
      "applyForJob(uint256)": {
        "notice": ""
      },
      "approveAndComplete(uint256)": {
        "notice": ""
      },
      "autoApproveIfTimeoutPassed(uint256)": {
        "notice": " (DeliveredCompleted)"
      },
      "autoCancelIfDeadlinePassed(uint256)": {
        "notice": " (InProgress & deadline)"
      },
      "cancelJob(uint256)": {
        "notice": " (Open)"
      },
      "createJob(address,uint256,string,string,uint256,string)": {
        "notice": "()"
      },
      "deliverWork(uint256)": {
        "notice": ""
      },
      "getJob(uint256)": {
        "notice": "Job"
      },
      "raiseDispute(uint256)": {
        "notice": " (InProgress or Delivered)"
      },
      "resolveDispute(uint256,bool)": {
        "notice": ""
      },
      "startContract(uint256,address)": {
        "notice": ""
      },
      "withdrawPayment(uint256)": {
        "notice": ""
      }
    },
    "version": 1
  },
  "storageLayout": {
    "storage": [
      {
        "astId": 940,
        "contract": "contracts/WorkAgreement.sol:WorkAgreement",
        "label": "jobCounter",
        "offset": 0,
        "slot": "0",
        "type": "t_uint256"
      },
      {
        "astId": 945,
        "contract": "contracts/WorkAgreement.sol:WorkAgreement",
        "label": "jobs",
        "offset": 0,
        "slot": "1",
        "type": "t_mapping(t_uint256,t_struct(Job)938_storage)"
      },
      {
        "astId": 947,
        "contract": "contracts/WorkAgreement.sol:WorkAgreement",
        "label": "disputeResolver",
        "offset": 0,
        "slot": "2",
        "type": "t_address"
      }
    ],
    "types": {
      "t_address": {
        "encoding": "inplace",
        "label": "address",
        "numberOfBytes": "20"
      },
      "t_enum(JobStatus)916": {
        "encoding": "inplace",
        "label": "enum WorkAgreement.JobStatus",
        "numberOfBytes": "1"
      },
      "t_mapping(t_uint256,t_struct(Job)938_storage)": {
        "encoding": "mapping",
        "key": "t_uint256",
        "label": "mapping(uint256 => struct WorkAgreement.Job)",
        "numberOfBytes": "32",
        "value": "t_struct(Job)938_storage"
      },
      "t_string_storage": {
        "encoding": "bytes",
        "label": "string",
        "numberOfBytes": "32"
      },
      "t_struct(Job)938_storage": {
        "encoding": "inplace",
        "label": "struct WorkAgreement.Job",
        "members": [
          {
            "astId": 918,
            "contract": "contracts/WorkAgreement.sol:WorkAgreement",
            "label": "client",
            "offset": 0,
            "slot": "0",
            "type": "t_address"
          },
          {
            "astId": 920,
            "contract": "contracts/WorkAgreement.sol:WorkAgreement",
            "label": "contractor",
            "offset": 0,
            "slot": "1",
            "type": "t_address"
          },
          {
            "astId": 922,
            "contract": "contracts/WorkAgreement.sol:WorkAgreement",
            "label": "depositAmount",
            "offset": 0,
            "slot": "2",
            "type": "t_uint256"
          },
          {
            "astId": 924,
            "contract": "contracts/WorkAgreement.sol:WorkAgreement",
            "label": "tokenAddress",
            "offset": 0,
            "slot": "3",
            "type": "t_address"
          },
          {
            "astId": 927,
            "contract": "contracts/WorkAgreement.sol:WorkAgreement",
            "label": "status",
            "offset": 20,
            "slot": "3",
            "type": "t_enum(JobStatus)916"
          },
          {
            "astId": 929,
            "contract": "contracts/WorkAgreement.sol:WorkAgreement",
            "label": "title",
            "offset": 0,
            "slot": "4",
            "type": "t_string_storage"
          },
          {
            "astId": 931,
            "contract": "contracts/WorkAgreement.sol:WorkAgreement",
            "label": "description",
            "offset": 0,
            "slot": "5",
            "type": "t_string_storage"
          },
          {
            "astId": 933,
            "contract": "contracts/WorkAgreement.sol:WorkAgreement",
            "label": "deadline",
            "offset": 0,
            "slot": "6",
            "type": "t_uint256"
          },
          {
            "astId": 935,
            "contract": "contracts/WorkAgreement.sol:WorkAgreement",
            "label": "jobURI",
            "offset": 0,
            "slot": "7",
            "type": "t_string_storage"
          },
          {
            "astId": 937,
            "contract": "contracts/WorkAgreement.sol:WorkAgreement",
            "label": "deliveredTimestamp",
            "offset": 0,
            "slot": "8",
            "type": "t_uint256"
          }
        ],
        "numberOfBytes": "288"
      },
      "t_uint256": {
        "encoding": "inplace",
        "label": "uint256",
        "numberOfBytes": "32"
      }
    }
  }
}