{
  "address": "0xf5b7EFc4E95403B9715c63b47beEFf75C574e269",
  "abi": [
    {
      "inputs": [
        {
          "internalType": "address",
          "name": "_disputeResolver",
          "type": "address"
        }
      ],
      "stateMutability": "nonpayable",
      "type": "constructor"
    },
    {
      "anonymous": false,
      "inputs": [
        {
          "indexed": true,
          "internalType": "uint256",
          "name": "jobId",
          "type": "uint256"
        },
        {
          "indexed": true,
          "internalType": "address",
          "name": "contractor",
          "type": "address"
        }
      ],
      "name": "JobApplied",
      "type": "event"
    },
    {
      "anonymous": false,
      "inputs": [
        {
          "indexed": true,
          "internalType": "uint256",
          "name": "jobId",
          "type": "uint256"
        }
      ],
      "name": "JobCancelled",
      "type": "event"
    },
    {
      "anonymous": false,
      "inputs": [
        {
          "indexed": true,
          "internalType": "uint256",
          "name": "jobId",
          "type": "uint256"
        }
      ],
      "name": "JobCompleted",
      "type": "event"
    },
    {
      "anonymous": false,
      "inputs": [
        {
          "indexed": true,
          "internalType": "uint256",
          "name": "jobId",
          "type": "uint256"
        },
        {
          "indexed": true,
          "internalType": "address",
          "name": "client",
          "type": "address"
        },
        {
          "indexed": false,
          "internalType": "uint256",
          "name": "depositAmount",
          "type": "uint256"
        },
        {
          "indexed": false,
          "internalType": "address",
          "name": "token",
          "type": "address"
        },
        {
          "indexed": false,
          "internalType": "string",
          "name": "title",
          "type": "string"
        },
        {
          "indexed": false,
          "internalType": "string",
          "name": "description",
          "type": "string"
        },
        {
          "indexed": false,
          "internalType": "uint256",
          "name": "deadline",
          "type": "uint256"
        },
        {
          "indexed": false,
          "internalType": "string",
          "name": "jobURI",
          "type": "string"
        }
      ],
      "name": "JobCreated",
      "type": "event"
    },
    {
      "anonymous": false,
      "inputs": [
        {
          "indexed": true,
          "internalType": "uint256",
          "name": "jobId",
          "type": "uint256"
        }
      ],
      "name": "JobDeadlineCancelled",
      "type": "event"
    },
    {
      "anonymous": false,
      "inputs": [
        {
          "indexed": true,
          "internalType": "uint256",
          "name": "jobId",
          "type": "uint256"
        },
        {
          "indexed": false,
          "internalType": "string",
          "name": "submissionURI",
          "type": "string"
        }
      ],
      "name": "JobDelivered",
      "type": "event"
    },
    {
      "anonymous": false,
      "inputs": [
        {
          "indexed": true,
          "internalType": "uint256",
          "name": "jobId",
          "type": "uint256"
        }
      ],
      "name": "JobDisputed",
      "type": "event"
    },
    {
      "anonymous": false,
      "inputs": [
        {
          "indexed": true,
          "internalType": "uint256",
          "name": "jobId",
          "type": "uint256"
        },
        {
          "indexed": false,
          "internalType": "bool",
          "name": "disputeUpheld",
          "type": "bool"
        }
      ],
      "name": "JobResolved",
      "type": "event"
    },
    {
      "anonymous": false,
      "inputs": [
        {
          "indexed": true,
          "internalType": "uint256",
          "name": "jobId",
          "type": "uint256"
        },
        {
          "indexed": true,
          "internalType": "address",
          "name": "contractor",
          "type": "address"
        }
      ],
      "name": "JobStarted",
      "type": "event"
    },
    {
      "inputs": [],
      "name": "AUTO_APPROVE_PERIOD",
      "outputs": [
        {
          "internalType": "uint256",
          "name": "",
          "type": "uint256"
        }
      ],
      "stateMutability": "view",
      "type": "function"
    },
    {
      "inputs": [
        {
          "internalType": "uint256",
          "name": "_jobId",
          "type": "uint256"
        }
      ],
      "name": "applyForJob",
      "outputs": [],
      "stateMutability": "nonpayable",
      "type": "function"
    },
    {
      "inputs": [
        {
          "internalType": "uint256",
          "name": "_jobId",
          "type": "uint256"
        }
      ],
      "name": "approveAndComplete",
      "outputs": [],
      "stateMutability": "nonpayable",
      "type": "function"
    },
    {
      "inputs": [
        {
          "internalType": "uint256",
          "name": "_jobId",
          "type": "uint256"
        }
      ],
      "name": "autoApproveIfTimeoutPassed",
      "outputs": [],
      "stateMutability": "nonpayable",
      "type": "function"
    },
    {
      "inputs": [
        {
          "internalType": "uint256",
          "name": "_jobId",
          "type": "uint256"
        }
      ],
      "name": "autoCancelIfDeadlinePassed",
      "outputs": [],
      "stateMutability": "nonpayable",
      "type": "function"
    },
    {
      "inputs": [
        {
          "internalType": "uint256",
          "name": "_jobId",
          "type": "uint256"
        }
      ],
      "name": "cancelJob",
      "outputs": [],
      "stateMutability": "nonpayable",
      "type": "function"
    },
    {
      "inputs": [
        {
          "internalType": "address",
          "name": "_tokenAddress",
          "type": "address"
        },
        {
          "internalType": "uint256",
          "name": "_depositAmount",
          "type": "uint256"
        },
        {
          "internalType": "string",
          "name": "_title",
          "type": "string"
        },
        {
          "internalType": "string",
          "name": "_description",
          "type": "string"
        },
        {
          "internalType": "uint256",
          "name": "_deadline",
          "type": "uint256"
        },
        {
          "internalType": "string",
          "name": "_jobURI",
          "type": "string"
        }
      ],
      "name": "createJob",
      "outputs": [
        {
          "internalType": "uint256",
          "name": "jobId",
          "type": "uint256"
        }
      ],
      "stateMutability": "payable",
      "type": "function"
    },
    {
      "inputs": [
        {
          "internalType": "uint256",
          "name": "_jobId",
          "type": "uint256"
        },
        {
          "internalType": "string",
          "name": "_submissionURI",
          "type": "string"
        }
      ],
      "name": "deliverWork",
      "outputs": [],
      "stateMutability": "nonpayable",
      "type": "function"
    },
    {
      "inputs": [],
      "name": "disputeResolver",
      "outputs": [
        {
          "internalType": "address",
          "name": "",
          "type": "address"
        }
      ],
      "stateMutability": "view",
      "type": "function"
    },
    {
      "inputs": [
        {
          "internalType": "uint256",
          "name": "_jobId",
          "type": "uint256"
        }
      ],
      "name": "getJob",
      "outputs": [
        {
          "internalType": "address",
          "name": "client_",
          "type": "address"
        },
        {
          "internalType": "address",
          "name": "contractor_",
          "type": "address"
        },
        {
          "internalType": "uint256",
          "name": "depositAmount_",
          "type": "uint256"
        },
        {
          "internalType": "address",
          "name": "tokenAddress_",
          "type": "address"
        },
        {
          "internalType": "enum WorkAgreement.JobStatus",
          "name": "status_",
          "type": "uint8"
        },
        {
          "internalType": "string",
          "name": "title_",
          "type": "string"
        },
        {
          "internalType": "string",
          "name": "description_",
          "type": "string"
        },
        {
          "internalType": "uint256",
          "name": "deadline_",
          "type": "uint256"
        },
        {
          "internalType": "string",
          "name": "jobURI_",
          "type": "string"
        },
        {
          "internalType": "uint256",
          "name": "deliveredAt_",
          "type": "uint256"
        },
        {
          "internalType": "string",
          "name": "submissionURI_",
          "type": "string"
        }
      ],
      "stateMutability": "view",
      "type": "function"
    },
    {
      "inputs": [],
      "name": "jobCounter",
      "outputs": [
        {
          "internalType": "uint256",
          "name": "",
          "type": "uint256"
        }
      ],
      "stateMutability": "view",
      "type": "function"
    },
    {
      "inputs": [
        {
          "internalType": "uint256",
          "name": "",
          "type": "uint256"
        }
      ],
      "name": "jobs",
      "outputs": [
        {
          "internalType": "address",
          "name": "client",
          "type": "address"
        },
        {
          "internalType": "address",
          "name": "contractor",
          "type": "address"
        },
        {
          "internalType": "uint256",
          "name": "depositAmount",
          "type": "uint256"
        },
        {
          "internalType": "address",
          "name": "tokenAddress",
          "type": "address"
        },
        {
          "internalType": "enum WorkAgreement.JobStatus",
          "name": "status",
          "type": "uint8"
        },
        {
          "internalType": "string",
          "name": "title",
          "type": "string"
        },
        {
          "internalType": "string",
          "name": "description",
          "type": "string"
        },
        {
          "internalType": "uint256",
          "name": "deadline",
          "type": "uint256"
        },
        {
          "internalType": "string",
          "name": "jobURI",
          "type": "string"
        },
        {
          "internalType": "uint256",
          "name": "deliveredTimestamp",
          "type": "uint256"
        },
        {
          "internalType": "string",
          "name": "submissionURI",
          "type": "string"
        }
      ],
      "stateMutability": "view",
      "type": "function"
    },
    {
      "inputs": [],
      "name": "owner",
      "outputs": [
        {
          "internalType": "address",
          "name": "",
          "type": "address"
        }
      ],
      "stateMutability": "view",
      "type": "function"
    },
    {
      "inputs": [
        {
          "internalType": "uint256",
          "name": "_jobId",
          "type": "uint256"
        }
      ],
      "name": "raiseDispute",
      "outputs": [],
      "stateMutability": "nonpayable",
      "type": "function"
    },
    {
      "inputs": [
        {
          "internalType": "uint256",
          "name": "_jobId",
          "type": "uint256"
        },
        {
          "internalType": "bool",
          "name": "_disputeUpheld",
          "type": "bool"
        }
      ],
      "name": "resolveDispute",
      "outputs": [],
      "stateMutability": "nonpayable",
      "type": "function"
    },
    {
      "inputs": [
        {
          "internalType": "address",
          "name": "_resolver",
          "type": "address"
        }
      ],
      "name": "setDisputeResolver",
      "outputs": [],
      "stateMutability": "nonpayable",
      "type": "function"
    },
    {
      "inputs": [
        {
          "internalType": "uint256",
          "name": "_jobId",
          "type": "uint256"
        },
        {
          "internalType": "address",
          "name": "_selectedContractor",
          "type": "address"
        }
      ],
      "name": "startContract",
      "outputs": [],
      "stateMutability": "nonpayable",
      "type": "function"
    },
    {
      "inputs": [
        {
          "internalType": "uint256",
          "name": "_jobId",
          "type": "uint256"
        }
      ],
      "name": "withdrawPayment",
      "outputs": [],
      "stateMutability": "nonpayable",
      "type": "function"
    },
    {
      "stateMutability": "payable",
      "type": "receive"
    }
  ],
  "transactionHash": "0xf8a838a96d4482d51a344b1db15a16205debd15dcea6fb5bec1204d014f3f457",
  "args": [
    "0x0fC909156De7faa008a844d699Ca5b8d67E2193E"
  ],
  "numDeployments": 2,
  "solcInputHash": "3e69d8b3aa3f8e5fad518372d5e9b40e",
  "bytecode": "0x60806040523480156200001157600080fd5b506040516200269038038062002690833981016040819052620000349162000063565b600280546001600160a01b039092166001600160a01b0319928316179055600380549091163317905562000095565b6000602082840312156200007657600080fd5b81516001600160a01b03811681146200008e57600080fd5b9392505050565b6125eb80620000a56000396000f3fe60806040526004361061010d5760003560e01c8063a5c1674e11610095578063dbd3cd6211610064578063dbd3cd62146102e1578063df937e0514610301578063e0c94ae514610321578063f5a3f4af14610341578063fe31e8591461036157600080fd5b8063a5c1674e1461026e578063b91bda371461028e578063bf22c457146102ae578063da2f28e8146102ce57600080fd5b80636ce279a1116100dc5780636ce279a1146101bf57806376619969146101d65780637b7a4dfe146101f65780638da5cb5b14610216578063924e63f61461024e57600080fd5b8063180aedf3146101195780631dffa3dc1461015957806334b25ee21461017b57806350355d761461019b57600080fd5b3661011457005b600080fd5b34801561012557600080fd5b50610139610134366004611e65565b610381565b6040516101509b9a99989796959493929190611eda565b60405180910390f35b34801561016557600080fd5b50610179610174366004611e65565b61060d565b005b34801561018757600080fd5b50610179610196366004611fa6565b610784565b3480156101a757600080fd5b506101b160005481565b604051908152602001610150565b3480156101cb57600080fd5b506101b162093a8081565b3480156101e257600080fd5b506101796101f136600461201f565b610a0c565b34801561020257600080fd5b50610179610211366004611e65565b610b95565b34801561022257600080fd5b50600354610236906001600160a01b031681565b6040516001600160a01b039091168152602001610150565b34801561025a57600080fd5b50610179610269366004612087565b610d68565b34801561027a57600080fd5b50610179610289366004611e65565b610dee565b34801561029a57600080fd5b506101796102a9366004611e65565b610f69565b3480156102ba57600080fd5b506101396102c9366004611e65565b61106d565b6101b16102dc3660046120a2565b611337565b3480156102ed57600080fd5b506101796102fc366004611e65565b6117df565b34801561030d57600080fd5b5061017961031c366004611e65565b61197a565b34801561032d57600080fd5b5061017961033c366004611e65565b611ab4565b34801561034d57600080fd5b50600254610236906001600160a01b031681565b34801561036d57600080fd5b5061017961037c366004612162565b611bf0565b6001602081905260009182526040909120805491810154600282015460038301546004840180546001600160a01b0396871696948516959394831693600160a01b90930460ff169291906103d49061218e565b80601f01602080910402602001604051908101604052809291908181526020018280546104009061218e565b801561044d5780601f106104225761010080835404028352916020019161044d565b820191906000526020600020905b81548152906001019060200180831161043057829003601f168201915b5050505050908060050180546104629061218e565b80601f016020809104026020016040519081016040528092919081815260200182805461048e9061218e565b80156104db5780601f106104b0576101008083540402835291602001916104db565b820191906000526020600020905b8154815290600101906020018083116104be57829003601f168201915b5050505050908060060154908060070180546104f69061218e565b80601f01602080910402602001604051908101604052809291908181526020018280546105229061218e565b801561056f5780601f106105445761010080835404028352916020019161056f565b820191906000526020600020905b81548152906001019060200180831161055257829003601f168201915b50505050509080600801549080600901805461058a9061218e565b80601f01602080910402602001604051908101604052809291908181526020018280546105b69061218e565b80156106035780601f106105d857610100808354040283529160200191610603565b820191906000526020600020905b8154815290600101906020018083116105e657829003601f168201915b505050505090508b565b80801580159061061f57506000548111155b6106445760405162461bcd60e51b815260040161063b906121c8565b60405180910390fd5b60008281526001602052604090205482906001600160a01b0316331461067c5760405162461bcd60e51b815260040161063b906121f0565b82600080600083815260016020526040902060030154600160a01b900460ff1660068111156106ad576106ad611e7e565b146106ca5760405162461bcd60e51b815260040161063b90612236565b6000858152600160205260408120600381018054600360a11b60ff60a01b1982161790915560028201805490849055919290610710906001600160a01b03163384611d7a565b90508061074f5760405162461bcd60e51b815260206004820152600d60248201526c1499599d5b990819985a5b1959609a1b604482015260640161063b565b60405188907f58243f872c550ad02802199ade99eb4250f6bb19e9abbf2d3de7b969c0eb5e4f90600090a25050505050505050565b81801580159061079657506000548111155b6107b25760405162461bcd60e51b815260040161063b906121c8565b6002546001600160a01b031633146108205760405162461bcd60e51b815260206004820152602b60248201527f4f6e6c79207468652061737369676e65642064697370757465207265736f6c7660448201526a195c8818d85b8818d85b1b60aa1b606482015260840161063b565b82600480600083815260016020526040902060030154600160a01b900460ff16600681111561085157610851611e7e565b1461086e5760405162461bcd60e51b815260040161063b90612236565b600354600160a01b900460ff16156108985760405162461bcd60e51b815260040161063b90612262565b60038054600160a01b60ff60a01b1991821617825560008781526001602052604081209283018054909216600560a01b179091556002820180549082905590861561094957600383015483546108fb916001600160a01b03908116911684611d7a565b9050806109445760405162461bcd60e51b81526020600482015260176024820152761499599d5b99081d1bc818db1a595b9d0819985a5b1959604a1b604482015260640161063b565b6109b9565b6003830154600184015461096a916001600160a01b03908116911684611d7a565b9050806109b95760405162461bcd60e51b815260206004820152601c60248201527f5061796d656e7420746f20636f6e74726163746f72206661696c656400000000604482015260640161063b565b877f4e16e40bdd80579534f4adbdfeb6c46b915766a6eaef01bf075de557a6152974886040516109ed911515815260200190565b60405180910390a250506003805460ff60a01b19169055505050505050565b828015801590610a1e57506000548111155b610a3a5760405162461bcd60e51b815260040161063b906121c8565b6000848152600160208190526040909120015484906001600160a01b03163314610a765760405162461bcd60e51b815260040161063b90612299565b84600180600083815260016020526040902060030154600160a01b900460ff166006811115610aa757610aa7611e7e565b14610ac45760405162461bcd60e51b815260040161063b90612236565b60008781526001602052604090206006810154421115610b265760405162461bcd60e51b815260206004820152601f60248201527f446561646c696e65207061737365642c2063616e6e6f742064656c6976657200604482015260640161063b565b60038101805460ff60a01b1916600160a11b17905542600882015560098101610b5087898361234a565b50877f53da9d34525fbf7971b56f93fb041671d1dfa42aaf2d28acd4df83ba502a0dac8888604051610b83929190612434565b60405180910390a25050505050505050565b808015801590610ba757506000548111155b610bc35760405162461bcd60e51b815260040161063b906121c8565b600354600160a01b900460ff1615610bed5760405162461bcd60e51b815260040161063b90612262565b6003805460ff60a01b1916600160a01b1790556000828152600160208190526040909120906003820154600160a01b900460ff166006811115610c3257610c32611e7e565b14610c4f5760405162461bcd60e51b815260040161063b90612236565b80600601544211610ca25760405162461bcd60e51b815260206004820152601760248201527f446561646c696e65206e6f742070617373656420796574000000000000000000604482015260640161063b565b600381018054600360a11b60ff60a01b1982161790915560028201805460009182905583549092610ce0916001600160a01b03918216911684611d7a565b905080610d295760405162461bcd60e51b81526020600482015260176024820152761499599d5b99081d1bc818db1a595b9d0819985a5b1959604a1b604482015260640161063b565b60405185907f7c8b76496423bbaed3013fd6b8b50a8ee61dd3d660fb813f1ae069a6777a3f3f90600090a250506003805460ff60a01b19169055505050565b6003546001600160a01b03163314610dcc5760405162461bcd60e51b815260206004820152602160248201527f4f6e6c79206f776e65722063616e2063616c6c20746869732066756e6374696f6044820152603760f91b606482015260840161063b565b600280546001600160a01b0319166001600160a01b0392909216919091179055565b808015801590610e0057506000548111155b610e1c5760405162461bcd60e51b815260040161063b906121c8565b600082815260016020526040902080546001600160a01b0316331480610e4e575060018101546001600160a01b031633145b610e8b5760405162461bcd60e51b815260206004820152600e60248201526d139bdd08185d5d1a1bdc9a5e995960921b604482015260640161063b565b60016003820154600160a01b900460ff166006811115610ead57610ead611e7e565b1480610ed8575060026003820154600160a01b900460ff166006811115610ed657610ed6611e7e565b145b610f245760405162461bcd60e51b815260206004820152601d60248201527f43616e6e6f74206469737075746520696e207468697320737461747573000000604482015260640161063b565b60038101805460ff60a01b1916600160a21b17905560405183907fb1dee78cef8c6887046d91c59e17f84fbc012c9f7efa49a10cce97e13cc94bf490600090a2505050565b808015801590610f7b57506000548111155b610f975760405162461bcd60e51b815260040161063b906121c8565b60008281526001602052604090205482906001600160a01b03163314610fcf5760405162461bcd60e51b815260040161063b906121f0565b82600280600083815260016020526040902060030154600160a01b900460ff16600681111561100057611000611e7e565b1461101d5760405162461bcd60e51b815260040161063b90612236565b600085815260016020526040808220600301805460ff60a01b1916600360a01b1790555186917f02244c8529cb95e213ee542e76e7776342b3dabd10203d01472bbf4441be892991a25050505050565b600081815260016020819052604082208054918101546002820154600383015460068401546008850154600486018054899889988998899860609889988b988a988a988a986001600160a01b03908116978116969590811694600160a01b90910460ff169360058a019260078b01919060098c019086906110ed9061218e565b80601f01602080910402602001604051908101604052809291908181526020018280546111199061218e565b80156111665780601f1061113b57610100808354040283529160200191611166565b820191906000526020600020905b81548152906001019060200180831161114957829003601f168201915b505050505095508480546111799061218e565b80601f01602080910402602001604051908101604052809291908181526020018280546111a59061218e565b80156111f25780601f106111c7576101008083540402835291602001916111f2565b820191906000526020600020905b8154815290600101906020018083116111d557829003601f168201915b505050505094508280546112059061218e565b80601f01602080910402602001604051908101604052809291908181526020018280546112319061218e565b801561127e5780601f106112535761010080835404028352916020019161127e565b820191906000526020600020905b81548152906001019060200180831161126157829003601f168201915b505050505092508080546112919061218e565b80601f01602080910402602001604051908101604052809291908181526020018280546112bd9061218e565b801561130a5780601f106112df5761010080835404028352916020019161130a565b820191906000526020600020905b8154815290600101906020018083116112ed57829003601f168201915b505050505090509b509b509b509b509b509b509b509b509b509b509b505091939597999b90929496989a50565b60008089116113885760405162461bcd60e51b815260206004820152601e60248201527f4465706f736974206d7573742062652067726561746572207468616e20300000604482015260640161063b565b4284116113d75760405162461bcd60e51b815260206004820152601e60248201527f446561646c696e65206d75737420626520696e20746865206675747572650000604482015260640161063b565b6001600160a01b038a16611445578834146114405760405162461bcd60e51b8152602060048201526024808201527f53656e742076616c7565206d75737420657175616c206465706f73697420616d6044820152631bdd5b9d60e21b606482015260840161063b565b611568565b34156114a55760405162461bcd60e51b815260206004820152602960248201527f446f206e6f742073656e64206e617469766520746f6b656e207768656e2075736044820152680696e672045524332360bc1b606482015260840161063b565b6040516323b872dd60e01b8152336004820152306024820152604481018a90526000906001600160a01b038c16906323b872dd906064016020604051808303816000875af11580156114fb573d6000803e3d6000fd5b505050506040513d601f19601f8201168201806040525081019061151f9190612450565b9050806115665760405162461bcd60e51b8152602060048201526015602482015274151bdad95b881d1c985b9cd9995c8819985a5b1959605a1b604482015260640161063b565b505b60008054908061157783612483565b9091555050600080546040805161016081018252338152602081018490529081018c90526001600160a01b038d166060820152909250906080820190815260200189898080601f016020809104026020016040519081016040528093929190818152602001838380828437600092019190915250505090825250604080516020601f8a0181900481028201810190925288815291810191908990899081908401838280828437600092019190915250505090825250602080820187905260408051601f870183900483028101830182528681529201919086908690819084018382808284376000920182905250938552505050602080830182905260408051808301825283815293810193909352848252600180825291839020845181546001600160a01b03199081166001600160a01b039283161783559286015193820180548416948216949094179093559284015160028401556060840151600384018054928316919093169081178355608085015192916001600160a81b03191617600160a01b83600681111561170d5761170d611e7e565b021790555060a08201516004820190611726908261249c565b5060c0820151600582019061173b908261249c565b5060e08201516006820155610100820151600782019061175b908261249c565b506101208201516008820155610140820151600982019061177c908261249c565b50905050336001600160a01b0316817ff21ce1898476e328503f1266c1b8e085cf3f2e6155131cde224e405c5dcc9e848b8d8c8c8c8c8c8c8c6040516117ca9998979695949392919061255c565b60405180910390a39998505050505050505050565b8080158015906117f157506000548111155b61180d5760405162461bcd60e51b815260040161063b906121c8565b6000828152600160208190526040909120015482906001600160a01b031633146118495760405162461bcd60e51b815260040161063b90612299565b82600380600083815260016020526040902060030154600160a01b900460ff16600681111561187a5761187a611e7e565b146118975760405162461bcd60e51b815260040161063b90612236565b600354600160a01b900460ff16156118c15760405162461bcd60e51b815260040161063b90612262565b60038054600160a01b60ff60a01b199182161782556000878152600160205260408120600281018054908390559381018054938416600560a01b1790559291611914906001600160a01b03163384611d7a565b9050806119635760405162461bcd60e51b815260206004820152601760248201527f5061796d656e74207472616e73666572206661696c6564000000000000000000604482015260640161063b565b50506003805460ff60a01b19169055505050505050565b80801580159061198c57506000548111155b6119a85760405162461bcd60e51b815260040161063b906121c8565b81600280600083815260016020526040902060030154600160a01b900460ff1660068111156119d9576119d9611e7e565b146119f65760405162461bcd60e51b815260040161063b90612236565b600084815260016020526040902060080154611a169062093a80906125c5565b421015611a655760405162461bcd60e51b815260206004820152601f60248201527f4175746f2d617070726f76616c20706572696f64206e6f742070617373656400604482015260640161063b565b600084815260016020526040808220600301805460ff60a01b1916600360a01b1790555185917f02244c8529cb95e213ee542e76e7776342b3dabd10203d01472bbf4441be892991a250505050565b808015801590611ac657506000548111155b611ae25760405162461bcd60e51b815260040161063b906121c8565b81600080600083815260016020526040902060030154600160a01b900460ff166006811115611b1357611b13611e7e565b14611b305760405162461bcd60e51b815260040161063b90612236565b600084815260016020819052604090912001546001600160a01b031615611b995760405162461bcd60e51b815260206004820152601b60248201527f436f6e74726163746f7220616c72656164792061737369676e65640000000000604482015260640161063b565b600084815260016020819052604080832090910180546001600160a01b031916339081179091559051909186917fffa837d183240a5f25cbd643a8eade702c0c9c3e186c59c7d929e4f1a3438d869190a350505050565b818015801590611c0257506000548111155b611c1e5760405162461bcd60e51b815260040161063b906121c8565b60008381526001602052604090205483906001600160a01b03163314611c565760405162461bcd60e51b815260040161063b906121f0565b83600080600083815260016020526040902060030154600160a01b900460ff166006811115611c8757611c87611e7e565b14611ca45760405162461bcd60e51b815260040161063b90612236565b600086815260016020819052604090912001546001600160a01b03868116911614611d1d5760405162461bcd60e51b8152602060048201526024808201527f4e6f74206d61746368656420776974682073656c656374656420636f6e74726160448201526331ba37b960e11b606482015260840161063b565b600086815260016020526040808220600301805460ff60a01b1916600160a01b179055516001600160a01b0387169188917f4b73dcf03afab0676163497ed70ae70f8bbeb0f3aea82639428412368171f8ba9190a3505050505050565b60006001600160a01b038416611de8576000836001600160a01b03168360405160006040518083038185875af1925050503d8060008114611dd7576040519150601f19603f3d011682016040523d82523d6000602084013e611ddc565b606091505b50909250611e5e915050565b60405163a9059cbb60e01b81526001600160a01b0384811660048301526024820184905285169063a9059cbb906044016020604051808303816000875af1158015611e37573d6000803e3d6000fd5b505050506040513d601f19601f82011682018060405250810190611e5b9190612450565b90505b9392505050565b600060208284031215611e7757600080fd5b5035919050565b634e487b7160e01b600052602160045260246000fd5b6000815180845260005b81811015611eba57602081850181015186830182015201611e9e565b506000602082860101526020601f19601f83011685010191505092915050565b6001600160a01b038c811682528b81166020830152604082018b905289166060820152600061016060078a10611f2057634e487b7160e01b600052602160045260246000fd5b8960808401528060a0840152611f388184018a611e94565b905082810360c0840152611f4c8189611e94565b90508660e0840152828103610100840152611f678187611e94565b905084610120840152828103610140840152611f838185611e94565b9e9d5050505050505050505050505050565b8015158114611fa357600080fd5b50565b60008060408385031215611fb957600080fd5b823591506020830135611fcb81611f95565b809150509250929050565b60008083601f840112611fe857600080fd5b50813567ffffffffffffffff81111561200057600080fd5b60208301915083602082850101111561201857600080fd5b9250929050565b60008060006040848603121561203457600080fd5b83359250602084013567ffffffffffffffff81111561205257600080fd5b61205e86828701611fd6565b9497909650939450505050565b80356001600160a01b038116811461208257600080fd5b919050565b60006020828403121561209957600080fd5b611e5e8261206b565b600080600080600080600080600060c08a8c0312156120c057600080fd5b6120c98a61206b565b985060208a0135975060408a013567ffffffffffffffff808211156120ed57600080fd5b6120f98d838e01611fd6565b909950975060608c013591508082111561211257600080fd5b61211e8d838e01611fd6565b909750955060808c0135945060a08c013591508082111561213e57600080fd5b5061214b8c828d01611fd6565b915080935050809150509295985092959850929598565b6000806040838503121561217557600080fd5b823591506121856020840161206b565b90509250929050565b600181811c908216806121a257607f821691505b6020821081036121c257634e487b7160e01b600052602260045260246000fd5b50919050565b6020808252600e908201526d125b9d985b1a59081a9bd888125160921b604082015260600190565b60208082526026908201527f4f6e6c792074686520636c69656e742063616e2063616c6c20746869732066756040820152653731ba34b7b760d11b606082015260800190565b602080825260129082015271496e76616c6964206a6f622073746174757360701b604082015260600190565b6020808252601f908201527f5265656e7472616e637947756172643a207265656e7472616e742063616c6c00604082015260600190565b6020808252602a908201527f4f6e6c792074686520636f6e74726163746f722063616e2063616c6c207468696040820152693990333ab731ba34b7b760b11b606082015260800190565b634e487b7160e01b600052604160045260246000fd5b601f821115612345576000816000526020600020601f850160051c810160208610156123225750805b601f850160051c820191505b818110156123415782815560010161232e565b5050505b505050565b67ffffffffffffffff831115612362576123626122e3565b61237683612370835461218e565b836122f9565b6000601f8411600181146123aa57600085156123925750838201355b600019600387901b1c1916600186901b178355612404565b600083815260209020601f19861690835b828110156123db57868501358255602094850194600190920191016123bb565b50868210156123f85760001960f88860031b161c19848701351681555b505060018560011b0183555b5050505050565b81835281816020850137506000828201602090810191909152601f909101601f19169091010190565b60208152600061244860208301848661240b565b949350505050565b60006020828403121561246257600080fd5b8151611e5e81611f95565b634e487b7160e01b600052601160045260246000fd5b6000600182016124955761249561246d565b5060010190565b815167ffffffffffffffff8111156124b6576124b66122e3565b6124ca816124c4845461218e565b846122f9565b602080601f8311600181146124ff57600084156124e75750858301515b600019600386901b1c1916600185901b178555612341565b600085815260208120601f198616915b8281101561252e5788860151825594840194600190910190840161250f565b508582101561254c5787850151600019600388901b60f8161c191681555b5050505050600190811b01905550565b8981526001600160a01b038916602082015260c060408201819052600090612587908301898b61240b565b828103606084015261259a81888a61240b565b905085608084015282810360a08401526125b581858761240b565b9c9b505050505050505050505050565b808201808211156125d8576125d861246d565b9291505056fea164736f6c6343000817000a",
  "devdoc": {
    "kind": "dev",
    "methods": {
      "createJob(address,uint256,string,string,uint256,string)": {
        "details": "_tokenAddress  address(0) Ether"
      },
      "resolveDispute(uint256,bool)": {
        "params": {
          "_disputeUpheld": "trueClientfalseContractor"
        }
      }
    },
    "version": 1
  },
  "userdoc": {
    "kind": "user",
    "methods": {
      "applyForJob(uint256)": {
        "notice": ""
      },
      "approveAndComplete(uint256)": {
        "notice": " job "
      },
      "autoApproveIfTimeoutPassed(uint256)": {
        "notice": "DeliveredCompleted"
      },
      "autoCancelIfDeadlinePassed(uint256)": {
        "notice": " job InProgressdeadline"
      },
      "cancelJob(uint256)": {
        "notice": "ClientjobOpen"
      },
      "createJob(address,uint256,string,string,uint256,string)": {
        "notice": ""
      },
      "deliverWork(uint256,string)": {
        "notice": "URL"
      },
      "getJob(uint256)": {
        "notice": "job"
      },
      "raiseDispute(uint256)": {
        "notice": "ClientContractor"
      },
      "resolveDispute(uint256,bool)": {
        "notice": ""
      },
      "setDisputeResolver(address)": {
        "notice": "(owner): "
      },
      "startContract(uint256,address)": {
        "notice": ""
      },
      "withdrawPayment(uint256)": {
        "notice": ""
      }
    },
    "version": 1
  },
  "storageLayout": {
    "storage": [
      {
        "astId": 63,
        "contract": "contracts/WorkAgreement.sol:WorkAgreement",
        "label": "jobCounter",
        "offset": 0,
        "slot": "0",
        "type": "t_uint256"
      },
      {
        "astId": 68,
        "contract": "contracts/WorkAgreement.sol:WorkAgreement",
        "label": "jobs",
        "offset": 0,
        "slot": "1",
        "type": "t_mapping(t_uint256,t_struct(Job)61_storage)"
      },
      {
        "astId": 70,
        "contract": "contracts/WorkAgreement.sol:WorkAgreement",
        "label": "disputeResolver",
        "offset": 0,
        "slot": "2",
        "type": "t_address"
      },
      {
        "astId": 75,
        "contract": "contracts/WorkAgreement.sol:WorkAgreement",
        "label": "owner",
        "offset": 0,
        "slot": "3",
        "type": "t_address"
      },
      {
        "astId": 77,
        "contract": "contracts/WorkAgreement.sol:WorkAgreement",
        "label": "locked",
        "offset": 20,
        "slot": "3",
        "type": "t_bool"
      }
    ],
    "types": {
      "t_address": {
        "encoding": "inplace",
        "label": "address",
        "numberOfBytes": "20"
      },
      "t_bool": {
        "encoding": "inplace",
        "label": "bool",
        "numberOfBytes": "1"
      },
      "t_enum(JobStatus)37": {
        "encoding": "inplace",
        "label": "enum WorkAgreement.JobStatus",
        "numberOfBytes": "1"
      },
      "t_mapping(t_uint256,t_struct(Job)61_storage)": {
        "encoding": "mapping",
        "key": "t_uint256",
        "label": "mapping(uint256 => struct WorkAgreement.Job)",
        "numberOfBytes": "32",
        "value": "t_struct(Job)61_storage"
      },
      "t_string_storage": {
        "encoding": "bytes",
        "label": "string",
        "numberOfBytes": "32"
      },
      "t_struct(Job)61_storage": {
        "encoding": "inplace",
        "label": "struct WorkAgreement.Job",
        "members": [
          {
            "astId": 39,
            "contract": "contracts/WorkAgreement.sol:WorkAgreement",
            "label": "client",
            "offset": 0,
            "slot": "0",
            "type": "t_address"
          },
          {
            "astId": 41,
            "contract": "contracts/WorkAgreement.sol:WorkAgreement",
            "label": "contractor",
            "offset": 0,
            "slot": "1",
            "type": "t_address"
          },
          {
            "astId": 43,
            "contract": "contracts/WorkAgreement.sol:WorkAgreement",
            "label": "depositAmount",
            "offset": 0,
            "slot": "2",
            "type": "t_uint256"
          },
          {
            "astId": 45,
            "contract": "contracts/WorkAgreement.sol:WorkAgreement",
            "label": "tokenAddress",
            "offset": 0,
            "slot": "3",
            "type": "t_address"
          },
          {
            "astId": 48,
            "contract": "contracts/WorkAgreement.sol:WorkAgreement",
            "label": "status",
            "offset": 20,
            "slot": "3",
            "type": "t_enum(JobStatus)37"
          },
          {
            "astId": 50,
            "contract": "contracts/WorkAgreement.sol:WorkAgreement",
            "label": "title",
            "offset": 0,
            "slot": "4",
            "type": "t_string_storage"
          },
          {
            "astId": 52,
            "contract": "contracts/WorkAgreement.sol:WorkAgreement",
            "label": "description",
            "offset": 0,
            "slot": "5",
            "type": "t_string_storage"
          },
          {
            "astId": 54,
            "contract": "contracts/WorkAgreement.sol:WorkAgreement",
            "label": "deadline",
            "offset": 0,
            "slot": "6",
            "type": "t_uint256"
          },
          {
            "astId": 56,
            "contract": "contracts/WorkAgreement.sol:WorkAgreement",
            "label": "jobURI",
            "offset": 0,
            "slot": "7",
            "type": "t_string_storage"
          },
          {
            "astId": 58,
            "contract": "contracts/WorkAgreement.sol:WorkAgreement",
            "label": "deliveredTimestamp",
            "offset": 0,
            "slot": "8",
            "type": "t_uint256"
          },
          {
            "astId": 60,
            "contract": "contracts/WorkAgreement.sol:WorkAgreement",
            "label": "submissionURI",
            "offset": 0,
            "slot": "9",
            "type": "t_string_storage"
          }
        ],
        "numberOfBytes": "320"
      },
      "t_uint256": {
        "encoding": "inplace",
        "label": "uint256",
        "numberOfBytes": "32"
      }
    }
  }
}